{
  "transactions": [
    {
      "hash": "0x05ecf430d6ef68484b17f4c002124941a215f4e71be08dae9374ca3f561d81af",
      "transactionType": "CREATE",
      "contractName": "MintableToken",
      "contractAddress": "0x79e823fbd4503bc5a2f35e2f4ca7c070ff1408db",
      "function": null,
      "arguments": [
        "Duality Test WETH",
        "dWETH"
      ],
      "transaction": {
        "from": "0x6bd6db75b56ace65019aa08fcad4778808da08bd",
        "value": "0x0",
        "input": "0x608060405234801562000010575f80fd5b506040516200093238038062000932833981016040819052620000339162000119565b5f62000040838262000209565b5060016200004f828262000209565b505050620002d5565b634e487b7160e01b5f52604160045260245ffd5b5f82601f8301126200007c575f80fd5b81516001600160401b038082111562000099576200009962000058565b604051601f8301601f19908116603f01168101908282118183101715620000c457620000c462000058565b8160405283815260209250866020858801011115620000e1575f80fd5b5f91505b83821015620001045785820183015181830184015290820190620000e5565b5f602085830101528094505050505092915050565b5f80604083850312156200012b575f80fd5b82516001600160401b038082111562000142575f80fd5b62000150868387016200006c565b9350602085015191508082111562000166575f80fd5b5062000175858286016200006c565b9150509250929050565b600181811c908216806200019457607f821691505b602082108103620001b357634e487b7160e01b5f52602260045260245ffd5b50919050565b601f8211156200020457805f5260205f20601f840160051c81016020851015620001e05750805b601f840160051c820191505b8181101562000201575f8155600101620001ec565b50505b505050565b81516001600160401b0381111562000225576200022562000058565b6200023d816200023684546200017f565b84620001b9565b602080601f83116001811462000273575f84156200025b5750858301515b5f19600386901b1c1916600185901b178555620002cd565b5f85815260208120601f198616915b82811015620002a35788860151825594840194600190910190840162000282565b5085821015620002c157878501515f19600388901b60f8161c191681555b505060018460011b0185555b505050505050565b61064f80620002e35f395ff3fe608060405234801561000f575f80fd5b506004361061009b575f3560e01c806340c10f191161006357806340c10f191461012457806370a082311461013957806395d89b4114610158578063a9059cbb14610160578063dd62ed3e14610173575f80fd5b806306fdde031461009f578063095ea7b3146100bd57806318160ddd146100e057806323b872dd146100f7578063313ce5671461010a575b5f80fd5b6100a761019d565b6040516100b4919061048e565b60405180910390f35b6100d06100cb3660046104f5565b610228565b60405190151581526020016100b4565b6100e960025481565b6040519081526020016100b4565b6100d061010536600461051d565b610294565b610112601281565b60405160ff90911681526020016100b4565b6101376101323660046104f5565b610344565b005b6100e9610147366004610556565b60036020525f908152604090205481565b6100a76103ad565b6100d061016e3660046104f5565b6103ba565b6100e9610181366004610576565b600460209081525f928352604080842090915290825290205481565b5f80546101a9906105a7565b80601f01602080910402602001604051908101604052809291908181526020018280546101d5906105a7565b80156102205780601f106101f757610100808354040283529160200191610220565b820191905f5260205f20905b81548152906001019060200180831161020357829003601f168201915b505050505081565b335f8181526004602090815260408083206001600160a01b038716808552925280832085905551919290917f8c5be1e5ebec7d5bd14f71427d1e84f3dd0314c0f7b2291e5b200ac8c7c3b925906102829086815260200190565b60405180910390a35060015b92915050565b6001600160a01b0383165f9081526004602090815260408083203384529091528120545f19811461032e57828110156103005760405162461bcd60e51b8152602060048201526009602482015268414c4c4f57414e434560b81b60448201526064015b60405180910390fd5b61030a83826105f3565b6001600160a01b0386165f9081526004602090815260408083203384529091529020555b6103398585856103cf565b506001949350505050565b8060025f8282546103559190610606565b90915550506001600160a01b0382165f818152600360209081526040808320805486019055518481527fddf252ad1be2c89b69c2b068fc378daa952ba7f163c4a11628f55a4df523b3ef910160405180910390a35050565b600180546101a9906105a7565b5f6103c63384846103cf565b50600192915050565b6001600160a01b0383165f908152600360205260409020548111156104205760405162461bcd60e51b815260206004820152600760248201526642414c414e434560c81b60448201526064016102f7565b6001600160a01b038084165f81815260036020526040808220805486900390559285168082529083902080548501905591517fddf252ad1be2c89b69c2b068fc378daa952ba7f163c4a11628f55a4df523b3ef906104819085815260200190565b60405180910390a3505050565b5f602080835283518060208501525f5b818110156104ba5785810183015185820160400152820161049e565b505f604082860101526040601f19601f8301168501019250505092915050565b80356001600160a01b03811681146104f0575f80fd5b919050565b5f8060408385031215610506575f80fd5b61050f836104da565b946020939093013593505050565b5f805f6060848603121561052f575f80fd5b610538846104da565b9250610546602085016104da565b9150604084013590509250925092565b5f60208284031215610566575f80fd5b61056f826104da565b9392505050565b5f8060408385031215610587575f80fd5b610590836104da565b915061059e602084016104da565b90509250929050565b600181811c908216806105bb57607f821691505b6020821081036105d957634e487b7160e01b5f52602260045260245ffd5b50919050565b634e487b7160e01b5f52601160045260245ffd5b8181038181111561028e5761028e6105df565b8082018082111561028e5761028e6105df56fea264697066735822122042f89c6acb4f3104547f2f7c6ee9b9d97e95c47ffbc00d8cba94db3a89422f3f64736f6c634300081800330000000000000000000000000000000000000000000000000000000000000040000000000000000000000000000000000000000000000000000000000000008000000000000000000000000000000000000000000000000000000000000000114475616c6974792054657374205745544800000000000000000000000000000000000000000000000000000000000000000000000000000000000000000000056457455448000000000000000000000000000000000000000000000000000000",
        "nonce": "0x52",
        "chainId": "0x66eee"
      },
      "additionalContracts": [],
      "isFixedGasLimit": false
    },
    {
      "hash": "0x8bd9a470eacc0fd0a0d97ac162ff273cff11626bf96c0361a79cf642e67e7697",
      "transactionType": "CREATE",
      "contractName": "MintableToken",
      "contractAddress": "0xe07b0ec1b3553751c8a3007d7cd944c0687924e6",
      "function": null,
      "arguments": [
        "Duality Test USDC",
        "dUSDC"
      ],
      "transaction": {
        "from": "0x6bd6db75b56ace65019aa08fcad4778808da08bd",
        "value": "0x0",
        "input": "0x608060405234801562000010575f80fd5b506040516200093238038062000932833981016040819052620000339162000119565b5f62000040838262000209565b5060016200004f828262000209565b505050620002d5565b634e487b7160e01b5f52604160045260245ffd5b5f82601f8301126200007c575f80fd5b81516001600160401b038082111562000099576200009962000058565b604051601f8301601f19908116603f01168101908282118183101715620000c457620000c462000058565b8160405283815260209250866020858801011115620000e1575f80fd5b5f91505b83821015620001045785820183015181830184015290820190620000e5565b5f602085830101528094505050505092915050565b5f80604083850312156200012b575f80fd5b82516001600160401b038082111562000142575f80fd5b62000150868387016200006c565b9350602085015191508082111562000166575f80fd5b5062000175858286016200006c565b9150509250929050565b600181811c908216806200019457607f821691505b602082108103620001b357634e487b7160e01b5f52602260045260245ffd5b50919050565b601f8211156200020457805f5260205f20601f840160051c81016020851015620001e05750805b601f840160051c820191505b8181101562000201575f8155600101620001ec565b50505b505050565b81516001600160401b0381111562000225576200022562000058565b6200023d816200023684546200017f565b84620001b9565b602080601f83116001811462000273575f84156200025b5750858301515b5f19600386901b1c1916600185901b178555620002cd565b5f85815260208120601f198616915b82811015620002a35788860151825594840194600190910190840162000282565b5085821015620002c157878501515f19600388901b60f8161c191681555b505060018460011b0185555b505050505050565b61064f80620002e35f395ff3fe608060405234801561000f575f80fd5b506004361061009b575f3560e01c806340c10f191161006357806340c10f191461012457806370a082311461013957806395d89b4114610158578063a9059cbb14610160578063dd62ed3e14610173575f80fd5b806306fdde031461009f578063095ea7b3146100bd57806318160ddd146100e057806323b872dd146100f7578063313ce5671461010a575b5f80fd5b6100a761019d565b6040516100b4919061048e565b60405180910390f35b6100d06100cb3660046104f5565b610228565b60405190151581526020016100b4565b6100e960025481565b6040519081526020016100b4565b6100d061010536600461051d565b610294565b610112601281565b60405160ff90911681526020016100b4565b6101376101323660046104f5565b610344565b005b6100e9610147366004610556565b60036020525f908152604090205481565b6100a76103ad565b6100d061016e3660046104f5565b6103ba565b6100e9610181366004610576565b600460209081525f928352604080842090915290825290205481565b5f80546101a9906105a7565b80601f01602080910402602001604051908101604052809291908181526020018280546101d5906105a7565b80156102205780601f106101f757610100808354040283529160200191610220565b820191905f5260205f20905b81548152906001019060200180831161020357829003601f168201915b505050505081565b335f8181526004602090815260408083206001600160a01b038716808552925280832085905551919290917f8c5be1e5ebec7d5bd14f71427d1e84f3dd0314c0f7b2291e5b200ac8c7c3b925906102829086815260200190565b60405180910390a35060015b92915050565b6001600160a01b0383165f9081526004602090815260408083203384529091528120545f19811461032e57828110156103005760405162461bcd60e51b8152602060048201526009602482015268414c4c4f57414e434560b81b60448201526064015b60405180910390fd5b61030a83826105f3565b6001600160a01b0386165f9081526004602090815260408083203384529091529020555b6103398585856103cf565b506001949350505050565b8060025f8282546103559190610606565b90915550506001600160a01b0382165f818152600360209081526040808320805486019055518481527fddf252ad1be2c89b69c2b068fc378daa952ba7f163c4a11628f55a4df523b3ef910160405180910390a35050565b600180546101a9906105a7565b5f6103c63384846103cf565b50600192915050565b6001600160a01b0383165f908152600360205260409020548111156104205760405162461bcd60e51b815260206004820152600760248201526642414c414e434560c81b60448201526064016102f7565b6001600160a01b038084165f81815260036020526040808220805486900390559285168082529083902080548501905591517fddf252ad1be2c89b69c2b068fc378daa952ba7f163c4a11628f55a4df523b3ef906104819085815260200190565b60405180910390a3505050565b5f602080835283518060208501525f5b818110156104ba5785810183015185820160400152820161049e565b505f604082860101526040601f19601f8301168501019250505092915050565b80356001600160a01b03811681146104f0575f80fd5b919050565b5f8060408385031215610506575f80fd5b61050f836104da565b946020939093013593505050565b5f805f6060848603121561052f575f80fd5b610538846104da565b9250610546602085016104da565b9150604084013590509250925092565b5f60208284031215610566575f80fd5b61056f826104da565b9392505050565b5f8060408385031215610587575f80fd5b610590836104da565b915061059e602084016104da565b90509250929050565b600181811c908216806105bb57607f821691505b6020821081036105d957634e487b7160e01b5f52602260045260245ffd5b50919050565b634e487b7160e01b5f52601160045260245ffd5b8181038181111561028e5761028e6105df565b8082018082111561028e5761028e6105df56fea264697066735822122042f89c6acb4f3104547f2f7c6ee9b9d97e95c47ffbc00d8cba94db3a89422f3f64736f6c634300081800330000000000000000000000000000000000000000000000000000000000000040000000000000000000000000000000000000000000000000000000000000008000000000000000000000000000000000000000000000000000000000000000114475616c6974792054657374205553444300000000000000000000000000000000000000000000000000000000000000000000000000000000000000000000056455534443000000000000000000000000000000000000000000000000000000",
        "nonce": "0x53",
        "chainId": "0x66eee"
      },
      "additionalContracts": [],
      "isFixedGasLimit": false
    },
    {
      "hash": "0x5cccfd2fca9ad818b164dd3bd8bc26e67231461ea62eb6fb201ef135e9b1fd47",
      "transactionType": "CREATE",
      "contractName": "DualityAmm",
      "contractAddress": "0x14051a0f8542208c44daec1a04bf27e721d20244",
      "function": null,
      "arguments": [
        "0x79e823fbd4503bC5A2f35E2f4cA7c070FF1408dB",
        "0xE07b0eC1B3553751C8A3007d7cd944C0687924e6",
        "dWETH/dUSDC",
        "30"
      ],
      "transaction": {
        "from": "0x6bd6db75b56ace65019aa08fcad4778808da08bd",
        "value": "0x0",
        "input": "0x60e060405234801562000010575f80fd5b50604051620012ef380380620012ef8339810160408190526200003391620000a7565b6001600160a01b03808516608052831660a0525f62000053838262000236565b5061ffff1660c0525062000302915050565b80516001600160a01b03811681146200007c575f80fd5b919050565b634e487b7160e01b5f52604160045260245ffd5b805161ffff811681146200007c575f80fd5b5f805f8060808587031215620000bb575f80fd5b620000c68562000065565b93506020620000d781870162000065565b60408701519094506001600160401b0380821115620000f4575f80fd5b818801915088601f83011262000108575f80fd5b8151818111156200011d576200011d62000081565b604051601f8201601f19908116603f0116810190838211818310171562000148576200014862000081565b816040528281528b8684870101111562000160575f80fd5b5f93505b8284101562000183578484018601518185018701529285019262000164565b5f868483010152809750505050505050620001a16060860162000095565b905092959194509250565b600181811c90821680620001c157607f821691505b602082108103620001e057634e487b7160e01b5f52602260045260245ffd5b50919050565b601f8211156200023157805f5260205f20601f840160051c810160208510156200020d5750805b601f840160051c820191505b818110156200022e575f815560010162000219565b50505b505050565b81516001600160401b0381111562000252576200025262000081565b6200026a81620002638454620001ac565b84620001e6565b602080601f831160018114620002a0575f8415620002885750858301515b5f19600386901b1c1916600185901b178555620002fa565b5f85815260208120601f198616915b82811015620002d057888601518255948401946001909101908401620002af565b5085821015620002ee57878501515f19600388901b60f8161c191681555b505060018460011b0185555b505050505050565b60805160a05160c051610f7d620003725f395f818161011f015281816103b701526105ee01525f81816101f60152818161026b015281816102d9015281816108310152610a4e01525f818160e00152818161028c015281816102b80152818161076e01526109860152610f7d5ff3fe608060405234801561000f575f80fd5b50600436106100b1575f3560e01c80635a76f25e1161006e5780635a76f25e146101795780639c8f9f23146101825780639cd441da146101aa578063a8aa1b31146101bd578063ce7c2ac2146101d2578063d21220a7146101f1575f80fd5b806308c84c21146100b55780630dfe1681146100db57806324a9d8531461011a5780633a98ef3914610154578063443cb4bc1461015d5780634df60b0114610166575b5f80fd5b6100c86100c3366004610d63565b610218565b6040519081526020015b60405180910390f35b6101027f000000000000000000000000000000000000000000000000000000000000000081565b6040516001600160a01b0390911681526020016100d2565b6101417f000000000000000000000000000000000000000000000000000000000000000081565b60405161ffff90911681526020016100d2565b6100c860035481565b6100c860015481565b6100c8610174366004610d95565b6105b6565b6100c860025481565b610195610190366004610dbf565b610657565b604080519283526020830191909152016100d2565b6100c86101b8366004610dd6565b610920565b6101c5610c43565b6040516100d29190610df6565b6100c86101e0366004610e42565b60046020525f908152604090205481565b6101027f000000000000000000000000000000000000000000000000000000000000000081565b5f808311801561022957505f600354115b6102605760405162461bcd60e51b815260206004820152600360248201526210905160ea1b60448201526064015b60405180910390fd5b5f805f80876102b6577f00000000000000000000000000000000000000000000000000000000000000007f00000000000000000000000000000000000000000000000000000000000000006002546001546102ff565b7f00000000000000000000000000000000000000000000000000000000000000007f00000000000000000000000000000000000000000000000000000000000000006001546002545b6040516323b872dd60e01b8152336004820152306024820152604481018c9052939750919550935091506001600160a01b038516906323b872dd906064016020604051808303815f875af1158015610359573d5f803e3d5ffd5b505050506040513d601f19601f8201168201806040525081019061037d9190610e68565b6103ae5760405162461bcd60e51b815260206004820152600260248201526124a760f11b6044820152606401610257565b5f6127106103dc7f000000000000000000000000000000000000000000000000000000000000000082610e97565b6103ea9061ffff168a610eb9565b6103f49190610ed0565b90506104008184610eef565b61040a8383610eb9565b6104149190610ed0565b955086861015801561042557508186105b61045c5760405162461bcd60e51b8152602060048201526008602482015267534c49505041474560c01b6044820152606401610257565b8815610496578760015f8282546104739190610eef565b925050819055508560025f82825461048b9190610f02565b909155506104c59050565b8760025f8282546104a79190610eef565b925050819055508560015f8282546104bf9190610f02565b90915550505b60405163a9059cbb60e01b8152336004820152602481018790526001600160a01b0385169063a9059cbb906044016020604051808303815f875af115801561050f573d5f803e3d5ffd5b505050506040513d601f19601f820116820180604052508101906105339190610e68565b6105655760405162461bcd60e51b815260206004820152600360248201526213d55560ea1b6044820152606401610257565b604080518a15158152602081018a905290810187905233907ff067e8ca829f67e4f9be38e977ceedd503b4602e190ac8c71415bc72d2b8663a9060600160405180910390a250505050509392505050565b5f805f846105c9576002546001546105d0565b6001546002545b91509150815f036105e5575f92505050610651565b5f6127106106137f000000000000000000000000000000000000000000000000000000000000000082610e97565b6106219061ffff1687610eb9565b61062b9190610ed0565b90506106378184610eef565b6106418383610eb9565b61064b9190610ed0565b93505050505b92915050565b5f805f831180156106765750335f908152600460205260409020548311155b6106ab5760405162461bcd60e51b815260206004820152600660248201526553484152455360d01b6044820152606401610257565b6003546001546106bb9085610eb9565b6106c59190610ed0565b9150600354600254846106d89190610eb9565b6106e29190610ed0565b335f90815260046020526040812080549293508592909190610705908490610f02565b925050819055508260035f82825461071d9190610f02565b925050819055508160015f8282546107359190610f02565b925050819055508060025f82825461074d9190610f02565b909155505060405163a9059cbb60e01b8152336004820152602481018390527f00000000000000000000000000000000000000000000000000000000000000006001600160a01b03169063a9059cbb906044016020604051808303815f875af11580156107bc573d5f803e3d5ffd5b505050506040513d601f19601f820116820180604052508101906107e09190610e68565b6108155760405162461bcd60e51b8152602060048201526006602482015265150c17d3d55560d21b6044820152606401610257565b60405163a9059cbb60e01b8152336004820152602481018290527f00000000000000000000000000000000000000000000000000000000000000006001600160a01b03169063a9059cbb906044016020604051808303815f875af115801561087f573d5f803e3d5ffd5b505050506040513d601f19601f820116820180604052508101906108a39190610e68565b6108d85760405162461bcd60e51b8152602060048201526006602482015265150c57d3d55560d21b6044820152606401610257565b604080518381526020810183905290810184905233907f1dc8bb69df2b8e91fbdcbfcf93d951b3f0000f085a95fe3f7946d6161439245d9060600160405180910390a2915091565b5f808311801561092f57505f82115b6109645760405162461bcd60e51b8152600401610257906020808252600490820152635a45524f60e01b604082015260600190565b6040516323b872dd60e01b8152336004820152306024820152604481018490527f00000000000000000000000000000000000000000000000000000000000000006001600160a01b0316906323b872dd906064016020604051808303815f875af11580156109d4573d5f803e3d5ffd5b505050506040513d601f19601f820116820180604052508101906109f89190610e68565b610a2c5760405162461bcd60e51b81526020600482015260056024820152642a182fa4a760d91b6044820152606401610257565b6040516323b872dd60e01b8152336004820152306024820152604481018390527f00000000000000000000000000000000000000000000000000000000000000006001600160a01b0316906323b872dd906064016020604051808303815f875af1158015610a9c573d5f803e3d5ffd5b505050506040513d601f19601f82011682018060405250810190610ac09190610e68565b610af45760405162461bcd60e51b81526020600482015260056024820152642a18afa4a760d91b6044820152606401610257565b60035415610b3e57610b3960015460035485610b109190610eb9565b610b1a9190610ed0565b600254600354610b2a9086610eb9565b610b349190610ed0565b610cce565b610b50565b610b50610b4b8385610eb9565b610ce5565b90505f8111610b8f5760405162461bcd60e51b815260206004820152600b60248201526a5a45524f5f53484152455360a81b6044820152606401610257565b335f9081526004602052604081208054839290610bad908490610eef565b925050819055508060035f828254610bc59190610eef565b925050819055508260015f828254610bdd9190610eef565b925050819055508160025f828254610bf59190610eef565b9091555050604080518481526020810184905290810182905233907f64b83944e79c3ce8d4c297411de637c3e102d064677aac0c163976ebdcd6f50e9060600160405180910390a292915050565b5f8054610c4f90610f15565b80601f0160208091040260200160405190810160405280929190818152602001828054610c7b90610f15565b8015610cc65780601f10610c9d57610100808354040283529160200191610cc6565b820191905f5260205f20905b815481529060010190602001808311610ca957829003601f168201915b505050505081565b5f818310610cdc5781610cde565b825b9392505050565b5f6003821115610d445750805f610cfd600283610ed0565b610d08906001610eef565b90505b81811015610d3e57905080600281610d238186610ed0565b610d2d9190610eef565b610d379190610ed0565b9050610d0b565b50919050565b8115610d4e575060015b919050565b8015158114610d60575f80fd5b50565b5f805f60608486031215610d75575f80fd5b8335610d8081610d53565b95602085013595506040909401359392505050565b5f8060408385031215610da6575f80fd5b8235610db181610d53565b946020939093013593505050565b5f60208284031215610dcf575f80fd5b5035919050565b5f8060408385031215610de7575f80fd5b50508035926020909101359150565b5f602080835283518060208501525f5b81811015610e2257858101830151858201604001528201610e06565b505f604082860101526040601f19601f8301168501019250505092915050565b5f60208284031215610e52575f80fd5b81356001600160a01b0381168114610cde575f80fd5b5f60208284031215610e78575f80fd5b8151610cde81610d53565b634e487b7160e01b5f52601160045260245ffd5b61ffff828116828216039080821115610eb257610eb2610e83565b5092915050565b808202811582820484141761065157610651610e83565b5f82610eea57634e487b7160e01b5f52601260045260245ffd5b500490565b8082018082111561065157610651610e83565b8181038181111561065157610651610e83565b600181811c90821680610f2957607f821691505b602082108103610d3e57634e487b7160e01b5f52602260045260245ffdfea2646970667358221220c3eddfc8f25a2cafe5c751378a838f8883bad3eb675399ba83568c2e105a933a64736f6c6343000818003300000000000000000000000079e823fbd4503bc5a2f35e2f4ca7c070ff1408db000000000000000000000000e07b0ec1b3553751c8a3007d7cd944c0687924e60000000000000000000000000000000000000000000000000000000000000080000000000000000000000000000000000000000000000000000000000000001e000000000000000000000000000000000000000000000000000000000000000b64574554482f6455534443000000000000000000000000000000000000000000",
        "nonce": "0x54",
        "chainId": "0x66eee"
      },
      "additionalContracts": [],
      "isFixedGasLimit": false
    },
    {
      "hash": "0x4ee7bc210ed7b1eeeb840d5fee889b6f701e90d6aa896ff89798892d7a13d904",
      "transactionType": "CALL",
      "contractName": "MintableToken",
      "contractAddress": "0x79e823fbd4503bc5a2f35e2f4ca7c070ff1408db",
      "function": "mint(address,uint256)",
      "arguments": [
        "0x6BD6Db75B56acE65019AA08FCAd4778808Da08bD",
        "10000000000000000000"
      ],
      "transaction": {
        "from": "0x6bd6db75b56ace65019aa08fcad4778808da08bd",
        "to": "0x79e823fbd4503bc5a2f35e2f4ca7c070ff1408db",
        "value": "0x0",
        "input": "0x40c10f190000000000000000000000006bd6db75b56ace65019aa08fcad4778808da08bd0000000000000000000000000000000000000000000000008ac7230489e80000",
        "nonce": "0x55",
        "chainId": "0x66eee"
      },
      "additionalContracts": [],
      "isFixedGasLimit": false
    },
    {
      "hash": "0x8efb4f213bc1fc4160dcc84d7a815dd72cb96fd2f802ea08ef811bdd9681152f",
      "transactionType": "CALL",
      "contractName": "MintableToken",
      "contractAddress": "0xe07b0ec1b3553751c8a3007d7cd944c0687924e6",
      "function": "mint(address,uint256)",
      "arguments": [
        "0x6BD6Db75B56acE65019AA08FCAd4778808Da08bD",
        "30000000000000000000000"
      ],
      "transaction": {
        "from": "0x6bd6db75b56ace65019aa08fcad4778808da08bd",
        "to": "0xe07b0ec1b3553751c8a3007d7cd944c0687924e6",
        "value": "0x0",
        "input": "0x40c10f190000000000000000000000006bd6db75b56ace65019aa08fcad4778808da08bd00000000000000000000000000000000000000000000065a4da25d3016c00000",
        "nonce": "0x56",
        "chainId": "0x66eee"
      },
      "additionalContracts": [],
      "isFixedGasLimit": false
    },
    {
      "hash": "0x6f3f281fdcbf980546a7c849bcda96ef847318eebf4264fa0dbd4a49a6e1c2c5",
      "transactionType": "CALL",
      "contractName": "MintableToken",
      "contractAddress": "0x79e823fbd4503bc5a2f35e2f4ca7c070ff1408db",
      "function": "approve(address,uint256)",
      "arguments": [
        "0x14051A0f8542208c44daEc1a04bf27e721D20244",
        "10000000000000000000"
      ],
      "transaction": {
        "from": "0x6bd6db75b56ace65019aa08fcad4778808da08bd",
        "to": "0x79e823fbd4503bc5a2f35e2f4ca7c070ff1408db",
        "value": "0x0",
        "input": "0x095ea7b300000000000000000000000014051a0f8542208c44daec1a04bf27e721d202440000000000000000000000000000000000000000000000008ac7230489e80000",
        "nonce": "0x57",
        "chainId": "0x66eee"
      },
      "additionalContracts": [],
      "isFixedGasLimit": false
    },
    {
      "hash": "0xa1d32b4d6450f8a09ee364d50ebbcb4d4e39129b9e296c4de709d4a16be7dfe7",
      "transactionType": "CALL",
      "contractName": "MintableToken",
      "contractAddress": "0xe07b0ec1b3553751c8a3007d7cd944c0687924e6",
      "function": "approve(address,uint256)",
      "arguments": [
        "0x14051A0f8542208c44daEc1a04bf27e721D20244",
        "30000000000000000000000"
      ],
      "transaction": {
        "from": "0x6bd6db75b56ace65019aa08fcad4778808da08bd",
        "to": "0xe07b0ec1b3553751c8a3007d7cd944c0687924e6",
        "value": "0x0",
        "input": "0x095ea7b300000000000000000000000014051a0f8542208c44daec1a04bf27e721d2024400000000000000000000000000000000000000000000065a4da25d3016c00000",
        "nonce": "0x58",
        "chainId": "0x66eee"
      },
      "additionalContracts": [],
      "isFixedGasLimit": false
    },
    {
      "hash": "0x66e122a6490a795c6022d6154cd86a505264b4f95fe39b1c49b216f89f7e5a1e",
      "transactionType": "CALL",
      "contractName": "DualityAmm",
      "contractAddress": "0x14051a0f8542208c44daec1a04bf27e721d20244",
      "function": "addLiquidity(uint256,uint256)",
      "arguments": [
        "10000000000000000000",
        "30000000000000000000000"
      ],
      "transaction": {
        "from": "0x6bd6db75b56ace65019aa08fcad4778808da08bd",
        "to": "0x14051a0f8542208c44daec1a04bf27e721d20244",
        "value": "0x0",
        "input": "0x9cd441da0000000000000000000000000000000000000000000000008ac7230489e8000000000000000000000000000000000000000000000000065a4da25d3016c00000",
        "nonce": "0x59",
        "chainId": "0x66eee"
      },
      "additionalContracts": [],
      "isFixedGasLimit": false
    }
  ],
  "receipts": [
    {
      "status": "0x1",
      "cumulativeGasUsed": "0xe124c",
      "logs": [],
      "logsBloom": "0x00000000000000000000000000000000000000000000000000000000000000000000000000000000000000000000000000000000000000000000000000000000000000000000000000000000000000000000000000000000000000000000000000000000000000000000000000000000000000000000000000000000000000000000000000000000000000000000000000000000000000000000000000000000000000000000000000000000000000000000000000000000000000000000000000000000000000000000000000000000000000000000000000000000000000000000000000000000000000000000000000000000000000000000000000000000",
      "type": "0x2",
      "transactionHash": "0x05ecf430d6ef68484b17f4c002124941a215f4e71be08dae9374ca3f561d81af",
      "transactionIndex": "0x5",
      "blockHash": "0x7942977f0bec18ea434222b45cd73c5384ac33280db7ecb04cc6d4e841455b3a",
      "blockNumber": "0x1075b5c5",
      "gasUsed": "0x7f779",
      "effectiveGasPrice": "0x1324e10",
      "from": "0x6bd6db75b56ace65019aa08fcad4778808da08bd",
      "to": null,
      "contractAddress": "0x79e823fbd4503bc5a2f35e2f4ca7c070ff1408db",
      "gasUsedForL1": "0xf155",
      "l1BlockNumber": "0xa86c58",
      "timeboosted": false
    },
    {
      "status": "0x1",
      "cumulativeGasUsed": "0xb592d",
      "logs": [],
      "logsBloom": "0x00000000000000000000000000000000000000000000000000000000000000000000000000000000000000000000000000000000000000000000000000000000000000000000000000000000000000000000000000000000000000000000000000000000000000000000000000000000000000000000000000000000000000000000000000000000000000000000000000000000000000000000000000000000000000000000000000000000000000000000000000000000000000000000000000000000000000000000000000000000000000000000000000000000000000000000000000000000000000000000000000000000000000000000000000000000",
      "type": "0x2",
      "transactionHash": "0x8bd9a470eacc0fd0a0d97ac162ff273cff11626bf96c0361a79cf642e67e7697",
      "transactionIndex": "0x2",
      "blockHash": "0xe2f26b9a08b3725b33ad3d77675b5b025fb6fdae25b77ee6f1f983dcae2a5a20",
      "blockNumber": "0x1075b5cc",
      "gasUsed": "0x7f83b",
      "effectiveGasPrice": "0x1312d00",
      "from": "0x6bd6db75b56ace65019aa08fcad4778808da08bd",
      "to": null,
      "contractAddress": "0xe07b0ec1b3553751c8a3007d7cd944c0687924e6",
      "gasUsedForL1": "0xf217",
      "l1BlockNumber": "0xa86c58",
      "timeboosted": false
    },
    {
      "status": "0x1",
      "cumulativeGasUsed": "0x18b481",
      "logs": [],
      "logsBloom": "0x00000000000000000000000000000000000000000000000000000000000000000000000000000000000000000000000000000000000000000000000000000000000000000000000000000000000000000000000000000000000000000000000000000000000000000000000000000000000000000000000000000000000000000000000000000000000000000000000000000000000000000000000000000000000000000000000000000000000000000000000000000000000000000000000000000000000000000000000000000000000000000000000000000000000000000000000000000000000000000000000000000000000000000000000000000000",
      "type": "0x2",
      "transactionHash": "0x5cccfd2fca9ad818b164dd3bd8bc26e67231461ea62eb6fb201ef135e9b1fd47",
      "transactionIndex": "0x3",
      "blockHash": "0x36b3b9cdd8aa4b7f058df34d4c0ebdaffaac81f06ef269fe624a9b61b7109041",
      "blockNumber": "0x1075b5da",
      "gasUsed": "0xfdd56",
      "effectiveGasPrice": "0x131d8e0",
      "from": "0x6bd6db75b56ace65019aa08fcad4778808da08bd",
      "to": null,
      "contractAddress": "0x14051a0f8542208c44daec1a04bf27e721d20244",
      "gasUsedForL1": "0x1770a",
      "l1BlockNumber": "0xa86c5a",
      "timeboosted": false
    },
    {
      "status": "0x1",
      "cumulativeGasUsed": "0x2e330",
      "logs": [
        {
          "address": "0x79e823fbd4503bc5a2f35e2f4ca7c070ff1408db",
          "topics": [
            "0xddf252ad1be2c89b69c2b068fc378daa952ba7f163c4a11628f55a4df523b3ef",
            "0x0000000000000000000000000000000000000000000000000000000000000000",
            "0x0000000000000000000000006bd6db75b56ace65019aa08fcad4778808da08bd"
          ],
          "data": "0x0000000000000000000000000000000000000000000000008ac7230489e80000",
          "blockHash": "0xad0b0f0ca2dba40185eee7cf86f5080dc39f7a935049857948bb893ba933aae7",
          "blockNumber": "0x1075b5e7",
          "blockTimestamp": "0x6a2ad7e1",
          "transactionHash": "0x4ee7bc210ed7b1eeeb840d5fee889b6f701e90d6aa896ff89798892d7a13d904",
          "transactionIndex": "0x3",
          "logIndex": "0x2",
          "removed": false
        }
      ],
      "logsBloom": "0x00000000000000000000000000000000800000000000000000000000000000000000040000000000000000000000000000000000000000000000000000000000000000000000000000000008000000000000020000000000000000000000000000000000020000000000000000000800000000000000080000000010000000000000000000000000000000000000000000000000000000000000000000000000000000000000000000000000000000000000400000000000000000000000000000000002000000000000000000000000000004000000000000000000000020000000000000000000000000000000000000000000000000000000000000000000",
      "type": "0x2",
      "transactionHash": "0x4ee7bc210ed7b1eeeb840d5fee889b6f701e90d6aa896ff89798892d7a13d904",
      "transactionIndex": "0x3",
      "blockHash": "0xad0b0f0ca2dba40185eee7cf86f5080dc39f7a935049857948bb893ba933aae7",
      "blockNumber": "0x1075b5e7",
      "gasUsed": "0x122d4",
      "effectiveGasPrice": "0x1324e10",
      "from": "0x6bd6db75b56ace65019aa08fcad4778808da08bd",
      "to": "0x79e823fbd4503bc5a2f35e2f4ca7c070ff1408db",
      "contractAddress": null,
      "gasUsedForL1": "0x188d",
      "l1BlockNumber": "0xa86c5a",
      "timeboosted": false
    },
    {
      "status": "0x1",
      "cumulativeGasUsed": "0x686fa",
      "logs": [
        {
          "address": "0xe07b0ec1b3553751c8a3007d7cd944c0687924e6",
          "topics": [
            "0xddf252ad1be2c89b69c2b068fc378daa952ba7f163c4a11628f55a4df523b3ef",
            "0x0000000000000000000000000000000000000000000000000000000000000000",
            "0x0000000000000000000000006bd6db75b56ace65019aa08fcad4778808da08bd"
          ],
          "data": "0x00000000000000000000000000000000000000000000065a4da25d3016c00000",
          "blockHash": "0x2b2f2c51fb1259e5f244212ced0bf56cb05e3e30f0ab41c56b5485afb1a654c3",
          "blockNumber": "0x1075b5f4",
          "blockTimestamp": "0x6a2ad7e4",
          "transactionHash": "0x8efb4f213bc1fc4160dcc84d7a815dd72cb96fd2f802ea08ef811bdd9681152f",
          "transactionIndex": "0x6",
          "logIndex": "0x4",
          "removed": false
        }
      ],
      "logsBloom": "0x00000000000000000000000000000000804000000000000000000000000000000000040000000000000000000000000000000000000000000000000000000000000000000000000000000008000000000000000000000000000000000000000000000000020000000000000000000800000000000000000000000010000000000000000000000000000000000000000000000000000000000000000000000000000000000000000000000000000000000000000000000000000000000000000000000002000000000000000000000000400004000000000000000000000020000000000000000000000000000000000000000000000000000000000000040000",
      "type": "0x2",
      "transactionHash": "0x8efb4f213bc1fc4160dcc84d7a815dd72cb96fd2f802ea08ef811bdd9681152f",
      "transactionIndex": "0x6",
      "blockHash": "0x2b2f2c51fb1259e5f244212ced0bf56cb05e3e30f0ab41c56b5485afb1a654c3",
      "blockNumber": "0x1075b5f4",
      "gasUsed": "0x12303",
      "effectiveGasPrice": "0x1312d00",
      "from": "0x6bd6db75b56ace65019aa08fcad4778808da08bd",
      "to": "0xe07b0ec1b3553751c8a3007d7cd944c0687924e6",
      "contractAddress": null,
      "gasUsedForL1": "0x18a4",
      "l1BlockNumber": "0xa86c5a",
      "timeboosted": false
    },
    {
      "status": "0x1",
      "cumulativeGasUsed": "0x6016f",
      "logs": [
        {
          "address": "0x79e823fbd4503bc5a2f35e2f4ca7c070ff1408db",
          "topics": [
            "0x8c5be1e5ebec7d5bd14f71427d1e84f3dd0314c0f7b2291e5b200ac8c7c3b925",
            "0x0000000000000000000000006bd6db75b56ace65019aa08fcad4778808da08bd",
            "0x00000000000000000000000014051a0f8542208c44daec1a04bf27e721d20244"
          ],
          "data": "0x0000000000000000000000000000000000000000000000008ac7230489e80000",
          "blockHash": "0x22dcd0c9739d29352703b1a8ba5bbd02c40fa55942b76bb6efb74c285cd93feb",
          "blockNumber": "0x1075b601",
          "blockTimestamp": "0x6a2ad7e7",
          "transactionHash": "0x6f3f281fdcbf980546a7c849bcda96ef847318eebf4264fa0dbd4a49a6e1c2c5",
          "transactionIndex": "0x7",
          "logIndex": "0x6",
          "removed": false
        }
      ],
      "logsBloom": "0x00000000000000000000000000000000800000000000000000000000000000000000040000000000000000000000000000000000000000000000000000200000000000000000000000000000000000000000020000000000000000000000000000000000000000000000000000000000000000000000080000000000000000000000000000000000000000000000000000000000000002000000000000000000060000000000000000000000000000000000400000000000000000000000000000000000000000000000000000000000002004000000000000000000000000000010000000000000000000000000000000000000000000000000000000000000",
      "type": "0x2",
      "transactionHash": "0x6f3f281fdcbf980546a7c849bcda96ef847318eebf4264fa0dbd4a49a6e1c2c5",
      "transactionIndex": "0x7",
      "blockHash": "0x22dcd0c9739d29352703b1a8ba5bbd02c40fa55942b76bb6efb74c285cd93feb",
      "blockNumber": "0x1075b601",
      "gasUsed": "0xccd9",
      "effectiveGasPrice": "0x1321f30",
      "from": "0x6bd6db75b56ace65019aa08fcad4778808da08bd",
      "to": "0x79e823fbd4503bc5a2f35e2f4ca7c070ff1408db",
      "contractAddress": null,
      "gasUsedForL1": "0x1891",
      "l1BlockNumber": "0xa86c5a",
      "timeboosted": false
    },
    {
      "status": "0x1",
      "cumulativeGasUsed": "0x5852d",
      "logs": [
        {
          "address": "0xe07b0ec1b3553751c8a3007d7cd944c0687924e6",
          "topics": [
            "0x8c5be1e5ebec7d5bd14f71427d1e84f3dd0314c0f7b2291e5b200ac8c7c3b925",
            "0x0000000000000000000000006bd6db75b56ace65019aa08fcad4778808da08bd",
            "0x00000000000000000000000014051a0f8542208c44daec1a04bf27e721d20244"
          ],
          "data": "0x00000000000000000000000000000000000000000000065a4da25d3016c00000",
          "blockHash": "0x3e753a5725b1b229a1ae40f8794a42229b4f21dee301413ff43f9fce35f7d7eb",
          "blockNumber": "0x1075b607",
          "blockTimestamp": "0x6a2ad7e9",
          "transactionHash": "0xa1d32b4d6450f8a09ee364d50ebbcb4d4e39129b9e296c4de709d4a16be7dfe7",
          "transactionIndex": "0x6",
          "logIndex": "0x4",
          "removed": false
        }
      ],
      "logsBloom": "0x00000000000000000000000000000000804000000000000000000000000000000000040000000000000000000000000000000000000000000000000000200000000000000000000000000000000000000000000000000000000000000000000000000000000000000000000000000000000000000000000000000000000000000000000000000000000000000000000000000000000002000000000000000000060000000000000000000000000000000000000000000000000000000000000000000000000000000000000000000000402004000000000000000000000000000010000000000000000000000000000000000000000000000000000000040000",
      "type": "0x2",
      "transactionHash": "0xa1d32b4d6450f8a09ee364d50ebbcb4d4e39129b9e296c4de709d4a16be7dfe7",
      "transactionIndex": "0x6",
      "blockHash": "0x3e753a5725b1b229a1ae40f8794a42229b4f21dee301413ff43f9fce35f7d7eb",
      "blockNumber": "0x1075b607",
      "gasUsed": "0xcced",
      "effectiveGasPrice": "0x1324640",
      "from": "0x6bd6db75b56ace65019aa08fcad4778808da08bd",
      "to": "0xe07b0ec1b3553751c8a3007d7cd944c0687924e6",
      "contractAddress": null,
      "gasUsedForL1": "0x188d",
      "l1BlockNumber": "0xa86c5a",
      "timeboosted": false
    },
    {
      "status": "0x1",
      "cumulativeGasUsed": "0x99f89",
      "logs": [
        {
          "address": "0x79e823fbd4503bc5a2f35e2f4ca7c070ff1408db",
          "topics": [
            "0xddf252ad1be2c89b69c2b068fc378daa952ba7f163c4a11628f55a4df523b3ef",
            "0x0000000000000000000000006bd6db75b56ace65019aa08fcad4778808da08bd",
            "0x00000000000000000000000014051a0f8542208c44daec1a04bf27e721d20244"
          ],
          "data": "0x0000000000000000000000000000000000000000000000008ac7230489e80000",
          "blockHash": "0x7e1da30f4fa3f3a6928340d0d20f18605ddb1c27dce7ea5a5f37ebbb1965b2b3",
          "blockNumber": "0x1075b614",
          "blockTimestamp": "0x6a2ad7ec",
          "transactionHash": "0x66e122a6490a795c6022d6154cd86a505264b4f95fe39b1c49b216f89f7e5a1e",
          "transactionIndex": "0x5",
          "logIndex": "0x4",
          "removed": false
        },
        {
          "address": "0xe07b0ec1b3553751c8a3007d7cd944c0687924e6",
          "topics": [
            "0xddf252ad1be2c89b69c2b068fc378daa952ba7f163c4a11628f55a4df523b3ef",
            "0x0000000000000000000000006bd6db75b56ace65019aa08fcad4778808da08bd",
            "0x00000000000000000000000014051a0f8542208c44daec1a04bf27e721d20244"
          ],
          "data": "0x00000000000000000000000000000000000000000000065a4da25d3016c00000",
          "blockHash": "0x7e1da30f4fa3f3a6928340d0d20f18605ddb1c27dce7ea5a5f37ebbb1965b2b3",
          "blockNumber": "0x1075b614",
          "blockTimestamp": "0x6a2ad7ec",
          "transactionHash": "0x66e122a6490a795c6022d6154cd86a505264b4f95fe39b1c49b216f89f7e5a1e",
          "transactionIndex": "0x5",
          "logIndex": "0x5",
          "removed": false
        },
        {
          "address": "0x14051a0f8542208c44daec1a04bf27e721d20244",
          "topics": [
            "0x64b83944e79c3ce8d4c297411de637c3e102d064677aac0c163976ebdcd6f50e",
            "0x0000000000000000000000006bd6db75b56ace65019aa08fcad4778808da08bd"
          ],
          "data": "0x0000000000000000000000000000000000000000000000008ac7230489e8000000000000000000000000000000000000000000000000065a4da25d3016c0000000000000000000000000000000000000000000000000001db12d6c17abe3fab0",
          "blockHash": "0x7e1da30f4fa3f3a6928340d0d20f18605ddb1c27dce7ea5a5f37ebbb1965b2b3",
          "blockNumber": "0x1075b614",
          "blockTimestamp": "0x6a2ad7ec",
          "transactionHash": "0x66e122a6490a795c6022d6154cd86a505264b4f95fe39b1c49b216f89f7e5a1e",
          "transactionIndex": "0x5",
          "logIndex": "0x6",
          "removed": false
        }
      ],
      "logsBloom": "0x00000000000000000000000000000000804000000000000000000000001000000000040000000000000000000000000000000000000000000000000000000000000001000000000000000008800000000000020000000010000000000000000000000000000000000000000000000000000000000000080000000010000000000000000000000000000000000000000000000000000002000000000000000000040000000000000000000000000000000000400000000000000000000000000000000002000000000000000000000000402004000000000000000000420000000000000000000000000000000000000000000000000000000000000000040000",
      "type": "0x2",
      "transactionHash": "0x66e122a6490a795c6022d6154cd86a505264b4f95fe39b1c49b216f89f7e5a1e",
      "transactionIndex": "0x5",
      "blockHash": "0x7e1da30f4fa3f3a6928340d0d20f18605ddb1c27dce7ea5a5f37ebbb1965b2b3",
      "blockNumber": "0x1075b614",
      "gasUsed": "0x2fb81",
      "effectiveGasPrice": "0x1312d00",
      "from": "0x6bd6db75b56ace65019aa08fcad4778808da08bd",
      "to": "0x14051a0f8542208c44daec1a04bf27e721d20244",
      "contractAddress": null,
      "gasUsedForL1": "0x18a4",
      "l1BlockNumber": "0xa86c5b",
      "timeboosted": false
    }
  ],
  "libraries": [],
  "pending": [],
  "returns": {},
  "timestamp": 1781192686,
  "chain": 421614,
  "commit": null
}